:100000000C942A000C943F000C943F000C943F0089
:100010000C943F000C943F000C943F000C943F0064
:100020000C943F000C943F000C943F000C943F0054
:100030000C943F000C943F000C943F000C943F0044
:100040000C943F000C943F000C943F000C943F0034
:100050000C943F0011241FBECFE5D8E0DEBFCDBF1A
:1000600010E0A0E6B0E0E2EDF9E002C005900D92EC
:10007000A236B107D9F70E9488000C94E7040C94CB
:100080000000FC012081223019F420EC27B906C0C1
:10009000213019F420E427B901C017B8FC0181818F
:1000A0008031C1F038F4843079F0883081F08230CA
:1000B000E1F407C08034A1F08038A9F08032A9F4BF
:1000C0000CC080E886B9089582E886B9089583E86F
:1000D00086B9089584E886B9089581E886B90895B7
:1000E00086E886B9089587E886B9089597B1907E25
:1000F00097B9877097B1892B87B986B1806486B923
:10010000349BFECF86B1806186B984B195B10895E4
:10011000CF93DF93CDB7DEB728970FB6F894DEBF45
:100120000FBECDBF0E9413010E941D0382E08F838A
:1001300088E08887CE0107960E94410083EC99E011
:100140000197F1F700C000008FEF0E943703898309
:100150008981813021F58FEF0E9437038A838A815C
:10016000823071F018F4813031F0EECF833069F0D5
:10017000843081F0E9CF64E083E00E943801E4CF6D
:1001800065E083E00E943801DFCF66E083E00E94F3
:100190003801DACF67E083E00E943801D5CF8FEFD6
:1001A0000E9437038B838B81811120C08FEF0E94C7
:1001B000370390E09D838C838C819D8182309105F3
:1001C00059F08330910569F0019709F0BDCF64E0E3
:1001D00083E00E943801B8CF65E083E00E943801D7
:1001E000B3CF66E083E00E943801AECF8FEF0E946C
:1001F00037038E838E81823051F0833069F08130F5
:1002000009F0A2CF67E083E00E9438019DCF63E050
:1002100083E00E94380198CF62E083E00E9465018C
:100220008111FACF91CF64E070E083E090E00E940A
:10023000E90265E070E083E090E00E94E90266E098
:1002400070E083E090E00E94E90267E070E083E004
:1002500090E00E94E90262E070E083E090E00E949A
:10026000E90263E070E083E090E00E94E902089513
:10027000EF92FF920F931F93CF93DF931F92CDB70F
:10028000DEB7E62EF12C082F10E0B701C8010E945E
:100290000003898389810E9437038FEF0E9437030F
:1002A000813029F4B701C8010E94F80206C08230EB
:1002B00021F4B701C8010E94FC020F90DF91CF9199
:1002C0001F910F91FF90EF900895CF92DF92EF92E0
:1002D000FF920F931F93CF93DF93C82ED62ED1E0BA
:1002E0008FEF0E943703C82F813031F48FEF0E94C7
:1002F00037038093600034C0823091F5ED2CF12CEF
:100300000C2D10E0B701C8010E9400030E943703C2
:1003100083EC99E00197F1F700C000008FEF0E9495
:100320003703D82F8130B1F40E940303E3ECF9E0E6
:100330003197F1F700C0000090916000981728F401
:10034000B701C8010E94F8020BC0B701C8010E94A2
:10035000FC0206C0823021F4B701C8010E94FC02F1
:10036000DD2309F4BDCF8C2FDF91CF911F910F9129
:10037000FF90EF90DF90CF900895683008F06FC045
:10038000843008F06CC0813001F130F08230B1F17E
:10039000833009F44CC00895413059F42AB381E008
:1003A00090E002C0880F991F6A95E2F7822B8ABB02
:1003B00008952AB381E090E002C0880F991F6A95E2
:1003C000E2F7809582238ABB0895413059F427B320
:1003D00081E090E002C0880F991F6A95E2F7822BB6
:1003E00087BB089527B381E090E002C0880F991F72
:1003F0006A95E2F78095822387BB0895413059F4CE
:1004000024B381E090E002C0880F991F6A95E2F75B
:10041000822B84BB089524B381E090E002C0880F52
:10042000991F6A95E2F78095822384BB0895413035
:1004300059F421B381E090E002C0880F991F6A95BA
:10044000E2F7822B81BB089521B381E090E002C0E6
:10045000880F991F6A95E2F78095822381BB0895E2
:10046000683008F06FC0843008F06CC0813001F152
:1004700030F08230B1F1833009F44CC0089541303E
:1004800059F42BB381E090E002C0880F991F6A9560
:10049000E2F7822B8BBB08952BB381E090E002C082
:1004A000880F991F6A95E2F7809582238BBB089588
:1004B000413059F428B381E090E002C0880F991FC1
:1004C0006A95E2F7822B88BB089528B381E090E01B
:1004D00002C0880F991F6A95E2F78095822388BB36
:1004E0000895413059F425B381E090E002C0880FAF
:1004F000991F6A95E2F7822B85BB089525B381E0A9
:1005000090E002C0880F991F6A95E2F780958223D8
:1005100085BB0895413059F422B381E090E002C0D8
:10052000880F991F6A95E2F7822B82BB089522B348
:1005300081E090E002C0880F991F6A95E2F78095EC
:10054000822382BB08956830B0F58430B0F58130E5
:1005500089F028F08230C9F0833011F130C089B3BE
:1005600090E002C0959587956A95E2F780FF29C0D3
:1005700081E0089586B390E002C0959587956A95CD
:10058000E2F780FF20C081E0089583B390E002C0CD
:10059000959587956A95E2F780FF17C081E00895E9
:1005A00080B390E002C0959587956A95E2F780FF49
:1005B0000EC081E0089580E0089580E0089580E015
:1005C000089580E0089580E0089580E0089580E037
:1005D0000895CF93DF93C82FD62F41E00E94BD012D
:1005E00040E06D2F8C2F0E943002DF91CF91089553
:1005F00041E00E943002089540E00E9430020895D8
:100600000E94A302089582E00E9476009C01A6E960
:10061000B0E00E94D8040E94DD032AE037ED43E2F7
:1006200050E40E946B0420E030ED4FEB54E40E9454
:100630003C030E94AE03862F089541E066E081E00E
:100640000E94BD0140E065E081E00E94BD0140E004
:1006500067E081E00E94BD0140E064E081E00E942B
:10066000BD0180E48DB98EB18E7F8EB908958FB9AA
:10067000779BFECF8FB108950E9450030C943104F4
:100680000E942A0458F00E94230440F029F45F3F9E
:1006900029F00C941A0451110C9465040C94200454
:1006A0000E94420468F39923B1F3552391F3951BFB
:1006B000550BBB27AA2762177307840738F09F5F83
:1006C0005F4F220F331F441FAA1FA9F335D00E2EF0
:1006D0003AF0E0E832D091505040E695001CCAF75D
:1006E0002BD0FE2F29D0660F771F881FBB1F261720
:1006F00037074807AB07B0E809F0BB0B802DBF01F7
:10070000FF2793585F4F3AF09E3F510578F00C94C5
:100710001A040C9465045F3FE4F3983ED4F3869585
:1007200077956795B795F7959F5FC9F7880F911DE6
:100730009695879597F90895E1E0660F771F881FD2
:10074000BB1F621773078407BA0720F0621B730B85
:10075000840BBA0BEE1F88F7E09508950E944A04B7
:1007600088F09F5798F0B92F9927B751B0F0E1F072
:10077000660F771F881F991F1AF0BA95C9F714C022
:10078000B13091F00E946404B1E008950C946404C7
:10079000672F782F8827B85F39F0B93FCCF386955B
:1007A00077956795B395D9F73EF4909580957095B8
:1007B00061957F4F8F4F9F4F0895E89409C097FB35
:1007C0003EF490958095709561957F4F8F4F9F4F28
:1007D0009923A9F0F92F96E9BB279395F69587956C
:1007E00077956795B795F111F8CFFAF4BB0F11F42F
:1007F00060FF1BC06F5F7F4F8F4F9F4F16C08823D6
:1008000011F096E911C0772321F09EE8872F762F0B
:1008100005C0662371F096E8862F70E060E02AF04C
:100820009A95660F771F881FDAF7880F9695879538
:1008300097F9089597F99F6780E870E060E0089560
:100840009FEF80EC089500240A94161617061806E8
:100850000906089500240A941216130614060506C4
:100860000895092E0394000C11F4882352F0BB0F55
:1008700040F4BF2B11F460FF04C06F5F7F4F8F4FB8
:100880009F4F089557FD9058440F551F59F05F3FF3
:1008900071F04795880F97FB991F61F09F3F79F0A2
:1008A00087950895121613061406551FF2CF469524
:1008B000F1DF08C0161617061806991FF1CF8695A6
:1008C0007105610508940895E894BB27662777278A
:1008D000CB0197F908950E947E040C9431040E9484
:1008E000230438F00E942A0420F0952311F00C9480
:1008F0001A040C94200411240C9465040E944204F0
:1009000070F3959FC1F3950F50E0551F629FF00162
:10091000729FBB27F00DB11D639FAA27F00DB11D7B
:10092000AA1F649F6627B00DA11D661F829F222704
:10093000B00DA11D621F739FB00DA11D621F839F8B
:10094000A00D611D221F749F3327A00D611D231F61
:10095000849F600D211D822F762F6A2F11249F57AF
:1009600050409AF0F1F088234AF0EE0FFF1FBB1FB2
:10097000661F771F881F91505040A9F79E3F510571
:1009800080F00C941A040C9465045F3FE4F3983EE5
:10099000D4F3869577956795B795F795E7959F5F1B
:1009A000C1F7FE2B880F911D9695879597F90895AD
:1009B000A29FB001B39FC001A39F700D811D1124A0
:1009C000911DB29F700D811D1124911D0895F89401
:0209D000FFCF57
:0209D20018000B
:00000001FF
