S0180000536D617274486F6D655F4D61737465722E73726563B1
S11300000C943A000C9457000C9457000C9457002D
S11300100C9457000C9457000C9457000C949C08B3
S11300200C9457000C94C5080C9457000C9457007A
S11300300C9457000C9457000C9457000C945700E0
S11300400C9457000C9457000C9457000C945700D0
S11300500C9457005A073E074007420744074607D7
S113006048074A074C074E07500752075B075407D7
S11300705607580711241FBECFE5D8E0DEBFCDBF19
S113008012E0A0E6B0E0E0E4F2E102C005900D92D7
S1130090A03EB107D9F722E0A0EEB2E001C01D9264
S11300A0A33EB207E1F70E9459000C941E090C9478
S11300B00000CF93DF93CDB7DEB72D970FB6F8943A
S11300C0DEBF0FBECDBF11E019838FB780688FBF2D
S11300D00E94E10783EC99E00197F1F700C000006A
S11300E08BEB91E00E9413091B821A8280E69AEE40
S11300F09D838C831E8385E08F831986188620E474
S11301003CE93B872A871C878D870E947D0860E035
S113011082E00E94660861E082E00E94660862E074
S113012082E00E94660880E490E00E942A0793E03F
S11301309A95F1F7000081508E3F10F40E943C0420
S113014080E390E00E942A07182F83E08A95F1F754
S1130150000081E390E00E942A0793E09A95F1F76A
S11301600000113011F4813011F00E94E5010E9469
S1130170A70200E0F12CE12C80916000811102C003
S11301800E94A70280916200811196C0CE0102965E
S11301900E94EE0861E082E00E94790860E082E05B
S11301A00E94750862E082E00E94790813E0809161
S11301B0E002811103C00E94C702E82EEE2029F05C
S11301C011F00E942B03115091F78091E0028F5F90
S11301D08093E00283E080936100111103C00E94C8
S11301E03C04CACF81E08093600010E01A3021F013
S11301F00E944D03082F10E0043011F01A3019F456
S11302000E949203182F143089F3809162000E9497
S1130210970811111DC080E00E949708802F0E944A
S1130220970887EA91E60197F1F700C000008FEF85
S11302300E94970889838981602F0E94CB040E94C1
S1130240970887EA91E60197F1F700C000002AC0F9
S113025081E00E949708812F0E94970887EA91E61F
S11302600197F1F700C00000133031F40E94370504
S11302708111FCCF1AE016C08FEF0E949708898382
S11302808981612F0E9409050E94970887EA91E6F7
S11302900197F1F700C000000E949203182F8430E8
S11302A009F410E080916000813009F49FCF81113E
S11302B063CF0E94A70260CF813009F059C0CE01FC
S11302C008960E94EE0861E082E00E94750860E0F2
S11302D082E00E94790862E082E00E94790813E0DB
S11302E08091E002811104C081E00E94C702E82EDF
S11302F0E11004C00E94D903F82E05C0E1100E9449
S11303002B03115069F78091E0028F5F8093E00224
S113031083E080936100111103C00E943C042CCF40
S113032081E080936000809162000E9497088F2D85
S11303300E94970891E29A95F1F700008FEF0E94CE
S11303409708898389816F2D0E947D040E949708F4
S113035087EA91E60197F1F700C000000E94D903F3
S1130360F82E809160008130F1F20E94A70204CF40
S11303700E94A70201CFCF93DF931F92CDB7DEB7C0
S11303801982109260001092E0020E94620883E6D3
S113039090E00E94380861E070E082E090E00E9402
S11303A0790860E070E082E090E00E94790862E001
S11303B070E082E090E00E9479080E9411098FE0C9
S11303C081BD0F90DF91CF9108951F93CF93DF9359
S11303D063E080E00E944B088CE690E00E943808BD
S11303E02FE38DE093E0215080409040E1F700C07E
S11303F000000E94620883EC99E00197F1F700C0C5
S1130400000060E080E00E944B0889E790E00E94D1
S1130410380860E081E00E944B0888E890E00E9480
S11304203808C0E0D0E01CC00E945C07182F8AE2A4
S11304300E9409089FE926E881E09150204080400D
S1130440E1F700C00000612F70E0CE0140960E94E9
S1130450180783EC99E00197F1F700C0000021969A
S1130460C330D10508F361E070E080E390E00E94BE
S1130470180783EC99E00197F1F700C000000E948F
S1130480620860E080E00E944B0884E990E00E94EA
S113049038089FE32DE083E0915020408040E1F74D
S11304A000C0000060E080E00E944B0885EA90E014
S11304B00E94380860E081E00E944B0884EB90E0E1
S11304C00E943808C0E0D0E01CC00E945C07182FCE
S11304D08AE20E9409089FE926E881E091502040C1
S11304E08040E1F700C00000612F70E0CE01469625
S11304F00E94180783EC99E00197F1F700C000000F
S11305002196C330D10508F361E070E081E390E007
S11305100E94180783EC99E00197F1F700C00000EE
S11305200E94620860E080E00E944B0880EC90E04A
S11305300E9438089FE32DE083E0915020408040E2
S1130540E1F700C00000DF91CF911F9108950E9450
S1130550620860E080E00E944B0881ED90E00E9418
S1130560380860E081E00E944B088FED90E00E9423
S113057038080E945C07809362002FE986E891E0C6
S1130580215080409040E1F700C0000008951F937F
S1130590CF93DF9300D000D01F92CDB7DEB7182FD2
S11305A01B821D820E94620860E080E00E944B086A
S11305B080EF90E00E94380860E081E00E944B08E0
S11305C08FEF90E00E9438081A82198236C00E9488
S11305D05C078B838AE20E9409082FE986E891E090
S11305E0215080409040E1F700C0000011110DC07F
S11305F089819A8140960E942A078C8383EC99E032
S11306000197F1F700C000000CC089819A814696D9
S11306100E942A078C8383EC99E00197F1F700C0CC
S113062000009B818C81981719F08D818F5F8D83D9
S113063089819A8101969A83898389819A81039712
S113064030F28D810F900F900F900F900F90DF91EB
S1130650CF911F9108958091610081508093610032
S11306600E9462088BE091E00E94380860E081E01B
S11306700E944B088AE191E00E9438088091610051
S1130680805D0E9409082FE38DE093E021508040B3
S11306909040E1F700C000000895CF930E946208E3
S11306A060E080E00E944B0887E291E00E943808F5
S11306B060E081E00E944B0888E391E00E943808E2
S11306C0C0E0CC23E9F00E94620888E491E00E9433
S11306D038082FE936E881E0215030408040E1F7C6
S11306E000C000000E94620887E291E00E9438087E
S11306F060E081E00E944B0888E391E00E943808A2
S11307000E945C07CF5F9FE926E831E091502040CA
S11307103040E1F700C000009FEF980F943088F656
S1130720CF910895CF930E94620860E080E00E9418
S11307304B0884E591E00E94380860E081E00E9463
S11307404B0882E691E00E943808C0E0CC23F9F01F
S11307500E94620888E491E00E9438082FE936E894
S113076081E0215030408040E1F700C0000060E0AB
S113077080E00E944B0884E591E00E94380860E024
S113078081E00E944B0882E691E00E9438080E94B2
S11307905C07CF5F9FE926E831E09150204030406C
S11307A0E1F700C000009FEF980F943078F6CF91E6
S11307B00895CF93DF9300D01F92CDB7DEB71A828E
S11307C019820E94620860E080E00E944B0887E280
S11307D091E00E94380860E081E00E944B0883E7C2
S11307E091E00E94380889819A8118161906FCF450
S11307F00E94620888E491E00E9438082FE986E8A4
S113080091E0215080409040E1F700C000000E9438
S1130810620887E291E00E94380860E081E00E946B
S11308204B0883E791E00E9438081A8219820E94DB
S11308305C078B832FE986E891E02150804090404B
S1130840E1F700C0000089819A8101969A83898327
S11308508B81813051F08B81823039F08B818330F0
S113086021F08B81843009F0BECF8B810F900F90E3
S11308700F90DF91CF9108950E94620884E891E07F
S11308800E94380860E081E00E944B0883E991E00F
S11308900E94380862E070E082E090E00E947508EF
S11308A060E070E082E090E00E94790861E070E02E
S11308B082E090E00E94790861E070E080E490E0DA
S11308C00E94180780E00AC02FE33DE093E0215026
S11308D030409040E1F700C000008F5F8431A0F306
S11308E060E070E080E490E00E94180762E070E04D
S11308F082E090E00E9479080895CF93DF93D82F87
S1130900C62F0E946208C13071F4D13029F483EA01
S113091091E00E94380832C0D11130C08FEA91E0D2
S11309200E9438082BC0C23071F4D13029F48CEB0A
S113093091E00E94380822C0D11120C088EC91E0D7
S11309400E9438081BC0C33061F4D13029F485ED0E
S113095091E00E94380812C081EE91E00E943808AC
S11309600DC0C43059F4D13029F48EEE91E00E94C8
S1130970380804C08AEF91E00E94380860E081E002
S11309800E944B0887E092E00E9438080E945C07AE
S1130990DF91CF910895CF93DF93D82FC62F0E9474
S11309A06208C13071F4D13029F483EA91E00E94E5
S11309B0380822C0D11120C08FEA91E00E94380883
S11309C01BC0C23061F4D13029F489E192E00E9465
S11309D0380812C086E292E00E9438080DC0C33085
S11309E059F4D13029F484E392E00E94380804C019
S11309F081E492E00E94380860E081E00E944B08A4
S1130A0087E092E00E9438080E945C07DF91CF9152
S1130A100895CF93DF93D82FC62F0E946208C13068
S1130A2061F4D13029F48FE492E00E94380812C0B6
S1130A308CE592E00E9438080DC0C23059F4D130E0
S1130A4029F48AE692E00E94380804C083E792E021
S1130A500E94380860E081E00E944B0887E092E041
S1130A600E9438080E945C07DF91CF9108950F938C
S1130A701F93CF93DF93D0E001E060E080E00E9419
S1130A804B088DE792E00E94380860E081E00E9404
S1130A904B088FE892E00E9438080E945C07C82F38
S1130AA087EA91E60197F1F700C000008C2F0E94BD
S1130AB0970887EA91E60197F1F700C00000C1307A
S1130AC091F50E94620880EA92E00E9438086AE088
S1130AD080E00E944B0810E017C00E945C079FE969
S1130AE026E831E0915020403040E1F700C000009A
S1130AF09D2F990FD92FDD0FDD0F9D0FD82FD90F03
S1130B00805D0E9409081F5F123038F38FE39DE077
S1130B1023E0815090402040E1F700C000008D2F79
S1130B200E94970827C0C23029F58FEF0E949708CA
S1130B30182F0E946208113029F48EEA92E00E9474
S1130B40380804C08EEB92E00E94380860E081E02F
S1130B500E944B088EEC92E00E9438080E945C07C9
S1130B60082F87EA91E60197F1F700C00000802F73
S1130B700E949708CC2319F0C23009F07ECF0023DD
S1130B8009F47BCF8C2FDF91CF911F910F910895A2
S1130B90683008F06FC0843008F06CC0813001F117
S1130BA030F08230B1F1833009F44CC00895413003
S1130BB059F42AB381E090E002C0880F991F6A9526
S1130BC0E2F7822B8ABB08952AB381E090E002C049
S1130BD0880F991F6A95E2F7809582238ABB08954E
S1130BE0413059F427B381E090E002C0880F991F87
S1130BF06A95E2F7822B87BB089527B381E090E0E2
S1130C0002C0880F991F6A95E2F78095822387BBFB
S1130C100895413059F424B381E090E002C0880F74
S1130C20991F6A95E2F7822B84BB089524B381E06F
S1130C3090E002C0880F991F6A95E2F7809582239D
S1130C4084BB0895413059F421B381E090E002C09F
S1130C50880F991F6A95E2F7822B81BB089521B30F
S1130C6081E090E002C0880F991F6A95E2F78095B1
S1130C70822381BB0895683008F06FC0843008F087
S1130C806CC0813001F130F08230B1F1833009F46D
S1130C904CC00895413059F42BB381E090E002C078
S1130CA0880F991F6A95E2F7822B8BBB08952BB3AB
S1130CB081E090E002C0880F991F6A95E2F7809561
S1130CC082238BBB0895413059F428B381E090E02E
S1130CD002C0880F991F6A95E2F7822B88BB08959A
S1130CE028B381E090E002C0880F991F6A95E2F76B
S1130CF08095822388BB0895413059F425B381E05F
S1130D0090E002C0880F991F6A95E2F7822B85BB99
S1130D10089525B381E090E002C0880F991F6A9579
S1130D20E2F78095822385BB0895413059F422B3BC
S1130D3081E090E002C0880F991F6A95E2F7822B48
S1130D4082BB089522B381E090E002C0880F991F0E
S1130D506A95E2F78095822382BB08956830B0F5E6
S1130D608430B0F5813089F028F08230C9F08330C6
S1130D7011F130C089B390E002C0959587956A95CA
S1130D80E2F780FF29C081E0089586B390E002C0B5
S1130D90959587956A95E2F780FF20C081E00895D4
S1130DA083B390E002C0959587956A95E2F780FF3A
S1130DB017C081E0089580B390E002C095958795AF
S1130DC06A95E2F780FF0EC081E0089580E00895FF
S1130DD080E0089580E0089580E0089580E008951B
S1130DE080E0089580E00895843078F4813041F003
S1130DF028F0823039F0833039F008956ABB0895C1
S1130E0067BB089564BB089561BB0895843078F48A
S1130E10813041F028F0823039F0833039F0089580
S1130E206BBB089568BB089565BB089562BB0895C4
S1130E30E199FECF9FBB8EBB8CB381608CBB8DB31D
S1130E40861739F06DBB8CB384608CBB8CB3826025
S1130E508CBB0895E199FECF9FBB8EBB8CB38160A0
S1130E608CBB8DB30895482F50E0FA013197E031DF
S1130E70F10508F5E65DFF4F0C94180988E0089524
S1130E8089E008958FE2089584E0089585E0089547
S1130E9086E008958AE2089581E0089582E0089545
S1130EA083E008958DE2089580E008958DE3089528
S1130EB08BE2089587E00895CF93DF9340E060E0EC
S1130EC083E00E94C80540E061E083E00E94C80519
S1130ED040E062E083E00E94C80540E063E083E014
S1130EE00E94C80540E064E083E00E94C80540E039
S1130EF065E083E00E94C80540E066E083E00E946C
S1130F00C80540E067E083E00E94C805D0E024C043
S1130F1041E06D2F83E00E94C80540E06D2F83E01F
S1130F200E943B06C0E010C064E06C0F83E00E94A6
S1130F30AE06811108C08D2F880F880F8C0F8F5F2C
S1130F400E9433070CC0CF5FC43070F340E06D2FB4
S1130F5083E00E94C805DF5FD430D0F2D7CFDF91A1
S1130F60CF910895CF93C82F40E061E081E00E94C3
S1130F703B0689EF90E00197F1F700C0000041E0E3
S1130F8060E081E00E943B0689EF90E00197F1F771
S1130F9000C000006C2F80E00E94060789EF90E0FB
S1130FA00197F1F700C0000040E060E081E00E949A
S1130FB03B0689EF90E00197F1F700C00000CF9164
S1130FC0089541E061E081E00E94C80541E060E0ED
S1130FD081E00E94C80541E062E081E00E94C8050A
S1130FE040E062E081E00E943B0687E893E10197DC
S1130FF0F1F700C000006FEF80E00E94F40688E380
S11310000E94B2078CE00E94B20781E00E94B207FE
S11310100895CF93C82F41E061E081E00E943B0630
S113102089EF90E00197F1F700C0000041E060E033
S113103081E00E943B0689EF90E00197F1F700C040
S113104000006C2F80E00E94060789EF90E0019772
S1131050F1F700C0000040E060E081E00E943B0640
S113106089EF90E00197F1F700C00000CF91089557
S11310700F931F93CF938C01C0E003C00E94090813
S1131080CF5FF801EC0FF11D80818111F7CFCF9173
S11310901F910F910895813031F070F0823031F05A
S11310A0833039F00AC090E4960F07C090E1960FA0
S11310B004C090E5960F01C0962F892F80680E9486
S11310C0B207089581E00E94B2070895CF93DF9399
S11310D0C82FD62F41E00E94C80540E06D2F8C2F09
S11310E00E943B06DF91CF91089541E00E943B06A8
S11310F0089540E00E943B06089540E066E081E0E8
S11311000E94C80541E065E081E00E94C80541E015
S113111067E081E00E94C80541E064E081E00E944C
S1131120C80580E58DB98EB18E7F8EB908958FB9CB
S1131130779BFECF8FB108951F920F920FB60F9237
S113114011242F933F934F935F936F937F938F93C8
S11311509F93AF93BF93EF93FF93E091E102F091DC
S1131160E202309709F00995FF91EF91BF91AF9199
S11311709F918F917F916F915F914F913F912F91AB
S11311800F900FBE0F901F9018951F920F920FB6DD
S11311900F9211242F933F934F935F936F937F93F9
S11311A08F939F93AF93BF93EF93FF93E091E102EB
S11311B0F091E202309709F00995FF91EF91BF9108
S11311C0AF919F918F917F916F915F914F913F91DB
S11311D02F910F900FBE0F901F901895FC018481E2
S11311E081110CC0808191819DBD8CBD8CE08FBD2F
S11311F089B7846089BF85818EBD0895813081F46B
S1131200808191819DBD8CBD828193819BBD8ABD6E
S11312108CE08FBD89B7806189BF858188608EBD70
S113122008951EBC08959093E2028093E10208950C
S1131230EE0FFF1F0590F491E02D0994F894FFCF71
S113124001030254696D65204F75740057656C6322
S11312506F6D6520686F6D65005365742041646D22
S1131260696E20506173730041646D696E20506132
S113127073733A0041646D696E2050617373207317
S113128061766564005365742047756573742050F6
S113129061737300477565737420506173733A000A
S11312A04775657374205061737320736176656448
S11312B00053656C656374204D6F64653A2D00308E
S11312C03A41646D696E2020313A47756573740044
S11312D0706C7A20656E746572207061737300455A
S11312E06E74657220706173733A0057726F6E6723
S11312F02070617373776F7264006C656674207418
S1131300696D6573203A00313A526F6F6D31202058
S1131310323A526F6F6D3200333A526F6F6D332031
S113132020343A4D6F72650057726F6E6720696E94
S113133070757400313A526F6F6D342020323A5414
S11313405600333A4169725F436F6E6420343A52F7
S1131350455400333A526F6F6D332020343A526F44
S11313606F6D340073797374656D20426C6F636BB9
S113137065640077616974203230207365636F6E31
S1131380647300524F4F4D312020733A4F4E005238
S11313904F4F4D312020733A4F464600524F4F4D28
S11313A0322020733A4F4E00524F4F4D322020735B
S11313B03A4F464600524F4F4D332020733A4F4E1A
S11313C000524F4F4D332020733A4F464600524F40
S11313D04F4D342020733A4F4E00524F4F4D34201E
S11313E020733A4F464600313A6F6E2020323A6FEE
S11313F0666620303A52657400526F6F6D20322059
S113140020733A4F4E00526F6F6D20322020733A92
S11314104F464600526F6F6D20332020733A4F4E73
S113142000526F6F6D20332020733A4F46460052AE
S11314306F6F6D20342020733A4F4E00526F6F6DE2
S113144020342020733A4F46460054562020733AE5
S11314504F4E0054562020733A4F464600313A739B
S113146065742074656D706572617475726500329F
S11314703A436F6E74726F6C2020303A52455400B8
S11314807365742074656D703A2D202043004169A2
S1131490725F436F6E642E2020733A4F4E00416991
S11314A0725F436F6E642E20733A4F464600313AA2
S11314B06F6E20322D6F666620303A52455400001C
S9030000FC
